{
    "abi": [
        {
            "type": "constructor",
            "inputs": [
                {
                    "name": "_developer",
                    "type": "address",
                    "internalType": "address"
                },
                {
                    "name": "_name",
                    "type": "string",
                    "internalType": "string"
                },
                {
                    "name": "_symbol",
                    "type": "string",
                    "internalType": "string"
                }
            ],
            "stateMutability": "nonpayable"
        },
        {
            "type": "receive",
            "stateMutability": "payable"
        },
        {
            "type": "function",
            "name": "DEV_FEE_PERCENT",
            "inputs": [],
            "outputs": [
                {
                    "name": "",
                    "type": "uint256",
                    "internalType": "uint256"
                }
            ],
            "stateMutability": "view"
        },
        {
            "type": "function",
            "name": "allowance",
            "inputs": [
                {
                    "name": "owner",
                    "type": "address",
                    "internalType": "address"
                },
                {
                    "name": "spender",
                    "type": "address",
                    "internalType": "address"
                }
            ],
            "outputs": [
                {
                    "name": "",
                    "type": "uint256",
                    "internalType": "uint256"
                }
            ],
            "stateMutability": "view"
        },
        {
            "type": "function",
            "name": "approve",
            "inputs": [
                {
                    "name": "spender",
                    "type": "address",
                    "internalType": "address"
                },
                {
                    "name": "value",
                    "type": "uint256",
                    "internalType": "uint256"
                }
            ],
            "outputs": [
                {
                    "name": "",
                    "type": "bool",
                    "internalType": "bool"
                }
            ],
            "stateMutability": "nonpayable"
        },
        {
            "type": "function",
            "name": "balanceOf",
            "inputs": [
                {
                    "name": "account",
                    "type": "address",
                    "internalType": "address"
                }
            ],
            "outputs": [
                {
                    "name": "",
                    "type": "uint256",
                    "internalType": "uint256"
                }
            ],
            "stateMutability": "view"
        },
        {
            "type": "function",
            "name": "buy",
            "inputs": [],
            "outputs": [],
            "stateMutability": "payable"
        },
        {
            "type": "function",
            "name": "calculateDevFee",
            "inputs": [
                {
                    "name": "_amount",
                    "type": "uint256",
                    "internalType": "uint256"
                }
            ],
            "outputs": [
                {
                    "name": "",
                    "type": "uint256",
                    "internalType": "uint256"
                }
            ],
            "stateMutability": "pure"
        },
        {
            "type": "function",
            "name": "calculatePurchaseAmount",
            "inputs": [
                {
                    "name": "_amountInWei",
                    "type": "uint256",
                    "internalType": "uint256"
                }
            ],
            "outputs": [
                {
                    "name": "",
                    "type": "uint256",
                    "internalType": "uint256"
                }
            ],
            "stateMutability": "view"
        },
        {
            "type": "function",
            "name": "calculateSaleReturn",
            "inputs": [
                {
                    "name": "_tokenAmount",
                    "type": "uint256",
                    "internalType": "uint256"
                }
            ],
            "outputs": [
                {
                    "name": "",
                    "type": "uint256",
                    "internalType": "uint256"
                }
            ],
            "stateMutability": "view"
        },
        {
            "type": "function",
            "name": "decimals",
            "inputs": [],
            "outputs": [
                {
                    "name": "",
                    "type": "uint8",
                    "internalType": "uint8"
                }
            ],
            "stateMutability": "view"
        },
        {
            "type": "function",
            "name": "developer",
            "inputs": [],
            "outputs": [
                {
                    "name": "",
                    "type": "address",
                    "internalType": "address"
                }
            ],
            "stateMutability": "view"
        },
        {
            "type": "function",
            "name": "getCurrentPrice",
            "inputs": [],
            "outputs": [
                {
                    "name": "",
                    "type": "uint256",
                    "internalType": "uint256"
                }
            ],
            "stateMutability": "view"
        },
        {
            "type": "function",
            "name": "name",
            "inputs": [],
            "outputs": [
                {
                    "name": "",
                    "type": "string",
                    "internalType": "string"
                }
            ],
            "stateMutability": "view"
        },
        {
            "type": "function",
            "name": "sell",
            "inputs": [
                {
                    "name": "_amount",
                    "type": "uint256",
                    "internalType": "uint256"
                }
            ],
            "outputs": [],
            "stateMutability": "nonpayable"
        },
        {
            "type": "function",
            "name": "symbol",
            "inputs": [],
            "outputs": [
                {
                    "name": "",
                    "type": "string",
                    "internalType": "string"
                }
            ],
            "stateMutability": "view"
        },
        {
            "type": "function",
            "name": "totalSupply",
            "inputs": [],
            "outputs": [
                {
                    "name": "",
                    "type": "uint256",
                    "internalType": "uint256"
                }
            ],
            "stateMutability": "view"
        },
        {
            "type": "function",
            "name": "transfer",
            "inputs": [
                {
                    "name": "to",
                    "type": "address",
                    "internalType": "address"
                },
                {
                    "name": "amount",
                    "type": "uint256",
                    "internalType": "uint256"
                }
            ],
            "outputs": [
                {
                    "name": "",
                    "type": "bool",
                    "internalType": "bool"
                }
            ],
            "stateMutability": "nonpayable"
        },
        {
            "type": "function",
            "name": "transferFrom",
            "inputs": [
                {
                    "name": "from",
                    "type": "address",
                    "internalType": "address"
                },
                {
                    "name": "to",
                    "type": "address",
                    "internalType": "address"
                },
                {
                    "name": "value",
                    "type": "uint256",
                    "internalType": "uint256"
                }
            ],
            "outputs": [
                {
                    "name": "",
                    "type": "bool",
                    "internalType": "bool"
                }
            ],
            "stateMutability": "nonpayable"
        },
        {
            "type": "event",
            "name": "Approval",
            "inputs": [
                {
                    "name": "owner",
                    "type": "address",
                    "indexed": true,
                    "internalType": "address"
                },
                {
                    "name": "spender",
                    "type": "address",
                    "indexed": true,
                    "internalType": "address"
                },
                {
                    "name": "value",
                    "type": "uint256",
                    "indexed": false,
                    "internalType": "uint256"
                }
            ],
            "anonymous": false
        },
        {
            "type": "event",
            "name": "Transfer",
            "inputs": [
                {
                    "name": "from",
                    "type": "address",
                    "indexed": true,
                    "internalType": "address"
                },
                {
                    "name": "to",
                    "type": "address",
                    "indexed": true,
                    "internalType": "address"
                },
                {
                    "name": "value",
                    "type": "uint256",
                    "indexed": false,
                    "internalType": "uint256"
                }
            ],
            "anonymous": false
        },
        {
            "type": "error",
            "name": "ERC20InsufficientAllowance",
            "inputs": [
                {
                    "name": "spender",
                    "type": "address",
                    "internalType": "address"
                },
                {
                    "name": "allowance",
                    "type": "uint256",
                    "internalType": "uint256"
                },
                {
                    "name": "needed",
                    "type": "uint256",
                    "internalType": "uint256"
                }
            ]
        },
        {
            "type": "error",
            "name": "ERC20InsufficientBalance",
            "inputs": [
                {
                    "name": "sender",
                    "type": "address",
                    "internalType": "address"
                },
                {
                    "name": "balance",
                    "type": "uint256",
                    "internalType": "uint256"
                },
                {
                    "name": "needed",
                    "type": "uint256",
                    "internalType": "uint256"
                }
            ]
        },
        {
            "type": "error",
            "name": "ERC20InvalidApprover",
            "inputs": [
                {
                    "name": "approver",
                    "type": "address",
                    "internalType": "address"
                }
            ]
        },
        {
            "type": "error",
            "name": "ERC20InvalidReceiver",
            "inputs": [
                {
                    "name": "receiver",
                    "type": "address",
                    "internalType": "address"
                }
            ]
        },
        {
            "type": "error",
            "name": "ERC20InvalidSender",
            "inputs": [
                {
                    "name": "sender",
                    "type": "address",
                    "internalType": "address"
                }
            ]
        },
        {
            "type": "error",
            "name": "ERC20InvalidSpender",
            "inputs": [
                {
                    "name": "spender",
                    "type": "address",
                    "internalType": "address"
                }
            ]
        },
        {
            "type": "error",
            "name": "InsufficientLiquidity",
            "inputs": []
        },
        {
            "type": "error",
            "name": "InvalidAmount",
            "inputs": []
        },
        {
            "type": "error",
            "name": "OnlyDeveloper",
            "inputs": []
        },
        {
            "type": "error",
            "name": "TransferFailed",
            "inputs": []
        }
    ],
    "bytecode": {
        "object": "0x60a060405234801562000010575f80fd5b50604051620010553803806200105583398101604081905262000033916200012d565b818160036200004383826200023b565b5060046200005282826200023b565b5050506001600160a01b0390921660805250620003079050565b634e487b7160e01b5f52604160045260245ffd5b5f82601f83011262000090575f80fd5b81516001600160401b0380821115620000ad57620000ad6200006c565b604051601f8301601f19908116603f01168101908282118183101715620000d857620000d86200006c565b8160405283815260209250866020858801011115620000f5575f80fd5b5f91505b83821015620001185785820183015181830184015290820190620000f9565b5f602085830101528094505050505092915050565b5f805f6060848603121562000140575f80fd5b83516001600160a01b038116811462000157575f80fd5b60208501519093506001600160401b038082111562000174575f80fd5b620001828783880162000080565b9350604086015191508082111562000198575f80fd5b50620001a78682870162000080565b9150509250925092565b600181811c90821680620001c657607f821691505b602082108103620001e557634e487b7160e01b5f52602260045260245ffd5b50919050565b601f8211156200023657805f5260205f20601f840160051c81016020851015620002125750805b601f840160051c820191505b8181101562000233575f81556001016200021e565b50505b505050565b81516001600160401b038111156200025757620002576200006c565b6200026f81620002688454620001b1565b84620001eb565b602080601f831160018114620002a5575f84156200028d5750858301515b5f19600386901b1c1916600185901b178555620002ff565b5f85815260208120601f198616915b82811015620002d557888601518255948401946001909101908401620002b4565b5085821015620002f357878501515f19600388901b60f8161c191681555b505060018460011b0185555b505050505050565b608051610d2e620003275f395f81816102ac01526105900152610d2e5ff3fe6080604052600436106100fd575f3560e01c806395d89b4111610092578063a9059cbb11610062578063a9059cbb1461027c578063ca4b208b1461029b578063dd62ed3e146102e6578063e4849b321461032a578063eb91d37e14610349575f80fd5b806395d89b41146102205780639a8cea8214610234578063a6b02bc314610253578063a6f2ae3a14610272575f80fd5b8063313ce567116100cd578063313ce5671461019e5780635e6a645e146101b957806369fcd4ac146101cd57806370a08231146101ec575f80fd5b806306fdde0314610108578063095ea7b31461013257806318160ddd1461016157806323b872dd1461017f575f80fd5b3661010457005b5f80fd5b348015610113575f80fd5b5061011c61035d565b6040516101299190610b20565b60405180910390f35b34801561013d575f80fd5b5061015161014c366004610b87565b6103ed565b6040519015158152602001610129565b34801561016c575f80fd5b506002545b604051908152602001610129565b34801561018a575f80fd5b50610151610199366004610baf565b610406565b3480156101a9575f80fd5b5060405160128152602001610129565b3480156101c4575f80fd5b50610171600a81565b3480156101d8575f80fd5b506101716101e7366004610be8565b610429565b3480156101f7575f80fd5b50610171610206366004610bff565b6001600160a01b03165f9081526020819052604090205490565b34801561022b575f80fd5b5061011c6104af565b34801561023f575f80fd5b5061017161024e366004610be8565b6104be565b34801561025e575f80fd5b5061017161026d366004610be8565b6104d6565b61027a610535565b005b348015610287575f80fd5b50610151610296366004610b87565b61062c565b3480156102a6575f80fd5b506102ce7f000000000000000000000000000000000000000000000000000000000000000081565b6040516001600160a01b039091168152602001610129565b3480156102f1575f80fd5b50610171610300366004610c1f565b6001600160a01b039182165f90815260016020908152604080832093909416825291909152205490565b348015610335575f80fd5b5061027a610344366004610be8565b61069a565b348015610354575f80fd5b5061017161078f565b60606003805461036c90610c50565b80601f016020809104026020016040519081016040528092919081815260200182805461039890610c50565b80156103e35780601f106103ba576101008083540402835291602001916103e3565b820191905f5260205f20905b8154815290600101906020018083116103c657829003601f168201915b5050505050905090565b5f336103fa8185856107d7565b60019150505b92915050565b5f336104138582856107e4565b61041e85858561085f565b506001949350505050565b5f815f0361044a5760405163162908e360e11b815260040160405180910390fd5b60025482111561046d5760405163162908e360e11b815260040160405180910390fd5b5f61047661078f565b90505f670de0b6b3a764000061048c8386610c9c565b6104969190610cb3565b90504781116104a557806104a7565b475b949350505050565b60606004805461036c90610c50565b5f60646104cc600a84610c9c565b6104009190610cb3565b5f815f036104f75760405163162908e360e11b815260040160405180910390fd5b5f610501836104be565b61050b9084610cd2565b90505f61051661078f565b90508061052b670de0b6b3a764000084610c9c565b6104a79190610cb3565b345f036105555760405163162908e360e11b815260040160405180910390fd5b5f61055f346104d6565b9050805f036105815760405163162908e360e11b815260040160405180910390fd5b5f61058b346104be565b90505f7f00000000000000000000000000000000000000000000000000000000000000006001600160a01b0316826040515f6040518083038185875af1925050503d805f81146105f6576040519150601f19603f3d011682016040523d82523d5f602084013e6105fb565b606091505b505090508061061d576040516312171d8360e31b815260040160405180910390fd5b61062733846108bc565b505050565b335f908152602081905260408120548211156106865760405162461bcd60e51b8152602060048201526014602482015273496e73756666696369656e742062616c616e636560601b60448201526064015b60405180910390fd5b61069133848461085f565b50600192915050565b805f036106ba5760405163162908e360e11b815260040160405180910390fd5b335f908152602081905260409020548111156106e95760405163162908e360e11b815260040160405180910390fd5b5f6106f382610429565b905080158061070157504781115b1561071f5760405163bb55fd2760e01b815260040160405180910390fd5b61072933836108f4565b6040515f90339083908381818185875af1925050503d805f8114610768576040519150601f19603f3d011682016040523d82523d5f602084013e61076d565b606091505b5050905080610627576040516312171d8360e31b815260040160405180910390fd5b5f8061079a60025490565b9050670de0b6b3a76400006107b666038d7ea4c6800083610c9c565b6107c09190610cb3565b6107d19066038d7ea4c68000610ce5565b91505090565b6106278383836001610928565b6001600160a01b038381165f908152600160209081526040808320938616835292905220545f198114610859578181101561084b57604051637dc7a0d960e11b81526001600160a01b0384166004820152602481018290526044810183905260640161067d565b61085984848484035f610928565b50505050565b6001600160a01b03831661088857604051634b637e8f60e11b81525f600482015260240161067d565b6001600160a01b0382166108b15760405163ec442f0560e01b81525f600482015260240161067d565b6106278383836109fa565b6001600160a01b0382166108e55760405163ec442f0560e01b81525f600482015260240161067d565b6108f05f83836109fa565b5050565b6001600160a01b03821661091d57604051634b637e8f60e11b81525f600482015260240161067d565b6108f0825f836109fa565b6001600160a01b0384166109515760405163e602df0560e01b81525f600482015260240161067d565b6001600160a01b03831661097a57604051634a1406b160e11b81525f600482015260240161067d565b6001600160a01b038085165f908152600160209081526040808320938716835292905220829055801561085957826001600160a01b0316846001600160a01b03167f8c5be1e5ebec7d5bd14f71427d1e84f3dd0314c0f7b2291e5b200ac8c7c3b925846040516109ec91815260200190565b60405180910390a350505050565b6001600160a01b038316610a24578060025f828254610a199190610ce5565b90915550610a949050565b6001600160a01b0383165f9081526020819052604090205481811015610a765760405163391434e360e21b81526001600160a01b0385166004820152602481018290526044810183905260640161067d565b6001600160a01b0384165f9081526020819052604090209082900390555b6001600160a01b038216610ab057600280548290039055610ace565b6001600160a01b0382165f9081526020819052604090208054820190555b816001600160a01b0316836001600160a01b03167fddf252ad1be2c89b69c2b068fc378daa952ba7f163c4a11628f55a4df523b3ef83604051610b1391815260200190565b60405180910390a3505050565b5f602080835283518060208501525f5b81811015610b4c57858101830151858201604001528201610b30565b505f604082860101526040601f19601f8301168501019250505092915050565b80356001600160a01b0381168114610b82575f80fd5b919050565b5f8060408385031215610b98575f80fd5b610ba183610b6c565b946020939093013593505050565b5f805f60608486031215610bc1575f80fd5b610bca84610b6c565b9250610bd860208501610b6c565b9150604084013590509250925092565b5f60208284031215610bf8575f80fd5b5035919050565b5f60208284031215610c0f575f80fd5b610c1882610b6c565b9392505050565b5f8060408385031215610c30575f80fd5b610c3983610b6c565b9150610c4760208401610b6c565b90509250929050565b600181811c90821680610c6457607f821691505b602082108103610c8257634e487b7160e01b5f52602260045260245ffd5b50919050565b634e487b7160e01b5f52601160045260245ffd5b808202811582820484141761040057610400610c88565b5f82610ccd57634e487b7160e01b5f52601260045260245ffd5b500490565b8181038181111561040057610400610c88565b8082018082111561040057610400610c8856fea2646970667358221220389f587798bba9ffaae29a17ae42ffd104b0f4bd6c1a0a9ca35f62d98904a6f464736f6c63430008180033",
        "linkReferences": {}
    },
    "methodIdentifiers": {
        "DEV_FEE_PERCENT()": "5e6a645e",
        "allowance(address,address)": "dd62ed3e",
        "approve(address,uint256)": "095ea7b3",
        "balanceOf(address)": "70a08231",
        "buy()": "a6f2ae3a",
        "calculateDevFee(uint256)": "9a8cea82",
        "calculatePurchaseAmount(uint256)": "a6b02bc3",
        "calculateSaleReturn(uint256)": "69fcd4ac",
        "decimals()": "313ce567",
        "developer()": "ca4b208b",
        "getCurrentPrice()": "eb91d37e",
        "name()": "06fdde03",
        "sell(uint256)": "e4849b32",
        "symbol()": "95d89b41",
        "totalSupply()": "18160ddd",
        "transfer(address,uint256)": "a9059cbb",
        "transferFrom(address,address,uint256)": "23b872dd"
    },
    "id": 25
}