{
    "abi": [
        {
            "type": "function",
            "name": "MIN_UPDATE_INTERVAL",
            "inputs": [],
            "outputs": [
                {
                    "name": "",
                    "type": "uint256",
                    "internalType": "uint256"
                }
            ],
            "stateMutability": "view"
        },
        {
            "type": "function",
            "name": "getLatestPrice",
            "inputs": [
                {
                    "name": "tokenAddress",
                    "type": "address",
                    "internalType": "address"
                }
            ],
            "outputs": [
                {
                    "name": "",
                    "type": "tuple",
                    "internalType": "struct PriceTracker.PriceData",
                    "components": [
                        {
                            "name": "timestamp",
                            "type": "uint256",
                            "internalType": "uint256"
                        },
                        {
                            "name": "price",
                            "type": "uint256",
                            "internalType": "uint256"
                        },
                        {
                            "name": "supply",
                            "type": "uint256",
                            "internalType": "uint256"
                        },
                        {
                            "name": "volume24h",
                            "type": "uint256",
                            "internalType": "uint256"
                        }
                    ]
                }
            ],
            "stateMutability": "view"
        },
        {
            "type": "function",
            "name": "getPriceHistory",
            "inputs": [
                {
                    "name": "tokenAddress",
                    "type": "address",
                    "internalType": "address"
                },
                {
                    "name": "fromTimestamp",
                    "type": "uint256",
                    "internalType": "uint256"
                },
                {
                    "name": "toTimestamp",
                    "type": "uint256",
                    "internalType": "uint256"
                }
            ],
            "outputs": [
                {
                    "name": "",
                    "type": "tuple[]",
                    "internalType": "struct PriceTracker.PriceData[]",
                    "components": [
                        {
                            "name": "timestamp",
                            "type": "uint256",
                            "internalType": "uint256"
                        },
                        {
                            "name": "price",
                            "type": "uint256",
                            "internalType": "uint256"
                        },
                        {
                            "name": "supply",
                            "type": "uint256",
                            "internalType": "uint256"
                        },
                        {
                            "name": "volume24h",
                            "type": "uint256",
                            "internalType": "uint256"
                        }
                    ]
                }
            ],
            "stateMutability": "view"
        },
        {
            "type": "function",
            "name": "lastUpdate",
            "inputs": [
                {
                    "name": "",
                    "type": "address",
                    "internalType": "address"
                }
            ],
            "outputs": [
                {
                    "name": "",
                    "type": "uint256",
                    "internalType": "uint256"
                }
            ],
            "stateMutability": "view"
        },
        {
            "type": "function",
            "name": "priceHistory",
            "inputs": [
                {
                    "name": "",
                    "type": "address",
                    "internalType": "address"
                },
                {
                    "name": "",
                    "type": "uint256",
                    "internalType": "uint256"
                }
            ],
            "outputs": [
                {
                    "name": "timestamp",
                    "type": "uint256",
                    "internalType": "uint256"
                },
                {
                    "name": "price",
                    "type": "uint256",
                    "internalType": "uint256"
                },
                {
                    "name": "supply",
                    "type": "uint256",
                    "internalType": "uint256"
                },
                {
                    "name": "volume24h",
                    "type": "uint256",
                    "internalType": "uint256"
                }
            ],
            "stateMutability": "view"
        },
        {
            "type": "function",
            "name": "updatePrice",
            "inputs": [
                {
                    "name": "tokenAddress",
                    "type": "address",
                    "internalType": "address"
                }
            ],
            "outputs": [],
            "stateMutability": "nonpayable"
        },
        {
            "type": "function",
            "name": "updateTimestamps",
            "inputs": [
                {
                    "name": "",
                    "type": "address",
                    "internalType": "address"
                },
                {
                    "name": "",
                    "type": "uint256",
                    "internalType": "uint256"
                }
            ],
            "outputs": [
                {
                    "name": "",
                    "type": "uint256",
                    "internalType": "uint256"
                }
            ],
            "stateMutability": "view"
        },
        {
            "type": "event",
            "name": "PriceUpdated",
            "inputs": [
                {
                    "name": "token",
                    "type": "address",
                    "indexed": true,
                    "internalType": "address"
                },
                {
                    "name": "timestamp",
                    "type": "uint256",
                    "indexed": false,
                    "internalType": "uint256"
                },
                {
                    "name": "price",
                    "type": "uint256",
                    "indexed": false,
                    "internalType": "uint256"
                },
                {
                    "name": "supply",
                    "type": "uint256",
                    "indexed": false,
                    "internalType": "uint256"
                },
                {
                    "name": "volume24h",
                    "type": "uint256",
                    "indexed": false,
                    "internalType": "uint256"
                }
            ],
            "anonymous": false
        },
        {
            "type": "error",
            "name": "InvalidToken",
            "inputs": []
        },
        {
            "type": "error",
            "name": "TooEarlyForUpdate",
            "inputs": []
        }
    ],
    "bytecode": {
        "object": "0x608060405234801561000f575f80fd5b506108b98061001d5f395ff3fe608060405234801561000f575f80fd5b506004361061007a575f3560e01c80639d442795116100585780639d44279514610118578063bd3be27c14610139578063cb03fb1e14610142578063fef511ed14610161575f80fd5b806316345f181461007e57806361f401e2146100a757806396e85ced14610103575b5f80fd5b61009161008c3660046106f2565b610181565b60405161009e9190610712565b60405180910390f35b6100e36100b536600461073f565b5f60208181529281526040808220909352908152208054600182015460028301546003909301549192909184565b60408051948552602085019390935291830152606082015260800161009e565b6101166101113660046106f2565b61026a565b005b61012b61012636600461073f565b61048a565b60405190815260200161009e565b61012b610e1081565b61012b6101503660046106f2565b60016020525f908152604090205481565b61017461016f366004610767565b6104b5565b60405161009e9190610797565b6101a860405180608001604052805f81526020015f81526020015f81526020015f81525090565b6001600160a01b0382165f90815260016020526040812054908190036102145760405162461bcd60e51b815260206004820152601760248201527f4e6f207072696365206461746120617661696c61626c65000000000000000000604482015260640160405180910390fd5b6001600160a01b039092165f908152602081815260408083209483529381529083902083516080810185528154815260018201549281019290925260028101549382019390935260039092015460608301525090565b6001600160a01b0381166102915760405163c1ab6dc160e01b815260040160405180910390fd5b6001600160a01b0381165f90815260016020526040902054819080156102dd576102bd610e1082610819565b4210156102dd576040516358d9e4f360e11b815260040160405180910390fd5b5f826001600160a01b031663eb91d37e6040518163ffffffff1660e01b8152600401602060405180830381865afa15801561031a573d5f803e3d5ffd5b505050506040513d601f19601f8201168201806040525081019061033e919061082c565b90505f836001600160a01b03166318160ddd6040518163ffffffff1660e01b8152600401602060405180830381865afa15801561037d573d5f803e3d5ffd5b505050506040513d601f19601f820116820180604052508101906103a1919061082c565b604080516080810182524280825260208083018781528385018681525f606086018181526001600160a01b038e168083528286528883208784528652888320885181559451600180870191909155935160028087019190915591516003909501949094558382528452868120805480840182559082528482200185905582815292528482208390559351949550939192917f5b3d9ab16648d9c4bcd3cc13b5f8b8e4c261c77879e02ef046cdd03e551e2e8e916104799188908890889093845260208401929092526040830152606082015260800190565b60405180910390a250505050505050565b6002602052815f5260405f2081815481106104a3575f80fd5b905f5260205f20015f91509150505481565b6001600160a01b0383165f908152600260205260408120606091805b825481101561053957858382815481106104ed576104ed610843565b905f5260205f2001541015801561051e57508483828154811061051257610512610843565b905f5260205f20015411155b15610531578161052d81610857565b9250505b6001016104d1565b505f8167ffffffffffffffff8111156105545761055461086f565b6040519080825280602002602001820160405280156105ac57816020015b61059960405180608001604052805f81526020015f81526020015f81526020015f81525090565b8152602001906001900390816105725790505b5090505f805b8454811080156105c157508382105b156106ca57878582815481106105d9576105d9610843565b905f5260205f2001541015801561060a5750868582815481106105fe576105fe610843565b905f5260205f20015411155b156106b8575f808a6001600160a01b03166001600160a01b031681526020019081526020015f205f86838154811061064457610644610843565b905f5260205f20015481526020019081526020015f206040518060800160405290815f8201548152602001600182015481526020016002820154815260200160038201548152505083838151811061069e5761069e610843565b602002602001018190525081806106b490610857565b9250505b806106c281610857565b9150506105b2565b5090979650505050505050565b80356001600160a01b03811681146106ed575f80fd5b919050565b5f60208284031215610702575f80fd5b61070b826106d7565b9392505050565b81518152602080830151908201526040808301519082015260608083015190820152608081015b92915050565b5f8060408385031215610750575f80fd5b610759836106d7565b946020939093013593505050565b5f805f60608486031215610779575f80fd5b610782846106d7565b95602085013595506040909401359392505050565b602080825282518282018190525f9190848201906040850190845b818110156107f9576107e6838551805182526020810151602083015260408101516040830152606081015160608301525050565b92840192608092909201916001016107b2565b50909695505050505050565b634e487b7160e01b5f52601160045260245ffd5b8082018082111561073957610739610805565b5f6020828403121561083c575f80fd5b5051919050565b634e487b7160e01b5f52603260045260245ffd5b5f6001820161086857610868610805565b5060010190565b634e487b7160e01b5f52604160045260245ffdfea2646970667358221220c46626a1128120b957643569cdc6fc27c223b1e450396d2e0aeb4df75561643464736f6c63430008180033",
        "linkReferences": {}
    },
    "methodIdentifiers": {
        "MIN_UPDATE_INTERVAL()": "bd3be27c",
        "getLatestPrice(address)": "16345f18",
        "getPriceHistory(address,uint256,uint256)": "fef511ed",
        "lastUpdate(address)": "cb03fb1e",
        "priceHistory(address,uint256)": "61f401e2",
        "updatePrice(address)": "96e85ced",
        "updateTimestamps(address,uint256)": "9d442795"
    },
    "id": 26
}