{"abi":[{"type":"function","name":"developers","inputs":[{"name":"","type":"address","internalType":"address"}],"outputs":[{"name":"walletAddress","type":"address","internalType":"address"},{"name":"githubUsername","type":"string","internalType":"string"},{"name":"isVerified","type":"bool","internalType":"bool"},{"name":"tokenAddress","type":"address","internalType":"address"},{"name":"createdAt","type":"uint256","internalType":"uint256"}],"stateMutability":"view"},{"type":"function","name":"githubToWallet","inputs":[{"name":"","type":"string","internalType":"string"}],"outputs":[{"name":"","type":"address","internalType":"address"}],"stateMutability":"view"},{"type":"function","name":"registerDeveloper","inputs":[{"name":"_githubUsername","type":"string","internalType":"string"}],"outputs":[],"stateMutability":"nonpayable"},{"type":"function","name":"verifyDeveloper","inputs":[{"name":"_developer","type":"address","internalType":"address"}],"outputs":[],"stateMutability":"nonpayable"},{"type":"event","name":"DeveloperRegistered","inputs":[{"name":"developer","type":"address","indexed":true,"internalType":"address"},{"name":"githubUsername","type":"string","indexed":false,"internalType":"string"}],"anonymous":false},{"type":"event","name":"DeveloperVerified","inputs":[{"name":"developer","type":"address","indexed":true,"internalType":"address"}],"anonymous":false},{"type":"error","name":"AlreadyRegistered","inputs":[]},{"type":"error","name":"GithubAlreadyRegistered","inputs":[]},{"type":"error","name":"NotRegistered","inputs":[]}],"bytecode":{"object":"0x608060405234801561000f575f80fd5b506107c98061001d5f395ff3fe608060405234801561000f575f80fd5b506004361061004a575f3560e01c806350fafc551461004e57806361fd5c2014610063578063aa83699a14610090578063bad61fc9146100dc575b5f80fd5b61006161005c36600461043b565b6100ef565b005b61007661007136600461043b565b610174565b604051610087959493929190610468565b60405180910390f35b6100c461009e3660046104fb565b80516020818301810180516001825292820191909301209152546001600160a01b031681565b6040516001600160a01b039091168152602001610087565b6100616100ea3660046105a6565b610240565b6001600160a01b038181165f90815260208190526040902054166101265760405163aba4733960e01b815260040160405180910390fd5b6001600160a01b0381165f81815260208190526040808220600201805460ff19166001179055517f9492c80de2946765d500d54619c55cf612ad75740955f618018d881c2c84360c9190a250565b5f60208190529081526040902080546001820180546001600160a01b03909216929161019f90610612565b80601f01602080910402602001604051908101604052809291908181526020018280546101cb90610612565b80156102165780601f106101ed57610100808354040283529160200191610216565b820191905f5260205f20905b8154815290600101906020018083116101f957829003601f168201915b505050506002830154600390930154919260ff8116926101009091046001600160a01b0316915085565b335f908152602081905260409020546001600160a01b03161561027657604051630ea075bf60e21b815260040160405180910390fd5b5f6001600160a01b03166001838360405161029292919061064a565b908152604051908190036020019020546001600160a01b0316146102c9576040516373b9f41f60e01b815260040160405180910390fd5b6040518060a00160405280336001600160a01b0316815260200183838080601f0160208091040260200160405190810160405280939291908181526020018383808284375f9201829052509385525050506020808301829052604080840183905242606090940193909352338252818152919020825181546001600160a01b0319166001600160a01b0390911617815590820151600182019061036c90826106a5565b5060408281015160028301805460608601516001600160a01b031661010002610100600160a81b0319931515939093166001600160a81b0319909116179190911790556080909201516003909101555133906001906103ce908590859061064a565b90815260405190819003602001812080546001600160a01b03939093166001600160a01b03199093169290921790915533907fd5e5ff9fcf48e7f2f95302254ec60a6538ab80bbfbe68bce25bca51ca2e021009061042f9085908590610765565b60405180910390a25050565b5f6020828403121561044b575f80fd5b81356001600160a01b0381168114610461575f80fd5b9392505050565b60018060a01b03861681525f602060a0602084015286518060a08501525f5b818110156104a35788810183015185820160c001528201610487565b505f60c0828601015260c0601f19601f830116850101925050506104cb604083018615159052565b6001600160a01b03939093166060820152608001529392505050565b634e487b7160e01b5f52604160045260245ffd5b5f6020828403121561050b575f80fd5b813567ffffffffffffffff80821115610522575f80fd5b818401915084601f830112610535575f80fd5b813581811115610547576105476104e7565b604051601f8201601f19908116603f0116810190838211818310171561056f5761056f6104e7565b81604052828152876020848701011115610587575f80fd5b826020860160208301375f928101602001929092525095945050505050565b5f80602083850312156105b7575f80fd5b823567ffffffffffffffff808211156105ce575f80fd5b818501915085601f8301126105e1575f80fd5b8135818111156105ef575f80fd5b866020828501011115610600575f80fd5b60209290920196919550909350505050565b600181811c9082168061062657607f821691505b60208210810361064457634e487b7160e01b5f52602260045260245ffd5b50919050565b818382375f9101908152919050565b601f8211156106a057805f5260205f20601f840160051c8101602085101561067e5750805b601f840160051c820191505b8181101561069d575f815560010161068a565b50505b505050565b815167ffffffffffffffff8111156106bf576106bf6104e7565b6106d3816106cd8454610612565b84610659565b602080601f831160018114610706575f84156106ef5750858301515b5f19600386901b1c1916600185901b17855561075d565b5f85815260208120601f198616915b8281101561073457888601518255948401946001909101908401610715565b508582101561075157878501515f19600388901b60f8161c191681555b505060018460011b0185555b505050505050565b60208152816020820152818360408301375f818301604090810191909152601f909201601f1916010191905056fea26469706673582212203b5c6c21eabb969d18da03039bde5e1c9ace6b5a5c00cb3f991060166b0b01e264736f6c63430008180033","linkReferences":{}},"methodIdentifiers":{"developers(address)":"61fd5c20","githubToWallet(string)":"aa83699a","registerDeveloper(string)":"bad61fc9","verifyDeveloper(address)":"50fafc55"},"id":28}